{
  "contractName": "votacion",
  "abi": [
    {
      "inputs": [],
      "payable": false,
      "stateMutability": "nonpayable",
      "type": "constructor"
    },
    {
      "anonymous": false,
      "inputs": [
        {
          "indexed": false,
          "internalType": "uint256",
          "name": "id",
          "type": "uint256"
        },
        {
          "indexed": false,
          "internalType": "string",
          "name": "id_persona",
          "type": "string"
        },
        {
          "indexed": false,
          "internalType": "string",
          "name": "voto",
          "type": "string"
        },
        {
          "indexed": false,
          "internalType": "string",
          "name": "fecha",
          "type": "string"
        }
      ],
      "name": "TaskCreated",
      "type": "event"
    },
    {
      "constant": true,
      "inputs": [],
      "name": "taskCount",
      "outputs": [
        {
          "internalType": "uint256",
          "name": "",
          "type": "uint256"
        }
      ],
      "payable": false,
      "stateMutability": "view",
      "type": "function"
    },
    {
      "constant": true,
      "inputs": [
        {
          "internalType": "uint256",
          "name": "",
          "type": "uint256"
        }
      ],
      "name": "tasks",
      "outputs": [
        {
          "internalType": "uint256",
          "name": "id",
          "type": "uint256"
        },
        {
          "internalType": "string",
          "name": "id_persona",
          "type": "string"
        },
        {
          "internalType": "string",
          "name": "voto",
          "type": "string"
        },
        {
          "internalType": "string",
          "name": "fecha_voto",
          "type": "string"
        }
      ],
      "payable": false,
      "stateMutability": "view",
      "type": "function"
    },
    {
      "constant": false,
      "inputs": [
        {
          "internalType": "string",
          "name": "_id_persona",
          "type": "string"
        },
        {
          "internalType": "string",
          "name": "_voto",
          "type": "string"
        },
        {
          "internalType": "string",
          "name": "_fecha_voto",
          "type": "string"
        }
      ],
      "name": "createTask",
      "outputs": [],
      "payable": false,
      "stateMutability": "nonpayable",
      "type": "function"
    }
  ],
  "bytecode": "0x60806040526000805534801561001457600080fd5b50610822806100246000396000f3fe608060405234801561001057600080fd5b50600436106100415760003560e01c80638d97767214610046578063b6cb58a5146101ae578063d2344f0a146101c8575b600080fd5b6100636004803603602081101561005c57600080fd5b503561037e565b60405180858152602001806020018060200180602001848103845287818151815260200191508051906020019080838360005b838110156100ae578181015183820152602001610096565b50505050905090810190601f1680156100db5780820380516001836020036101000a031916815260200191505b50848103835286518152865160209182019188019080838360005b8381101561010e5781810151838201526020016100f6565b50505050905090810190601f16801561013b5780820380516001836020036101000a031916815260200191505b50848103825285518152855160209182019187019080838360005b8381101561016e578181015183820152602001610156565b50505050905090810190601f16801561019b5780820380516001836020036101000a031916815260200191505b5097505050505050505060405180910390f35b6101b6610546565b60408051918252519081900360200190f35b61037c600480360360608110156101de57600080fd5b8101906020810181356401000000008111156101f957600080fd5b82018360208201111561020b57600080fd5b8035906020019184600183028401116401000000008311171561022d57600080fd5b91908080601f016020809104026020016040519081016040528093929190818152602001838380828437600092019190915250929594936020810193503591505064010000000081111561028057600080fd5b82018360208201111561029257600080fd5b803590602001918460018302840111640100000000831117156102b457600080fd5b91908080601f016020809104026020016040519081016040528093929190818152602001838380828437600092019190915250929594936020810193503591505064010000000081111561030757600080fd5b82018360208201111561031957600080fd5b8035906020019184600183028401116401000000008311171561033b57600080fd5b91908080601f01602080910402602001604051908101604052809392919081815260200183838082843760009201919091525092955061054c945050505050565b005b600160208181526000928352604092839020805481840180548651600296821615610100026000190190911695909504601f8101859004850286018501909652858552909491939290919083018282801561041a5780601f106103ef5761010080835404028352916020019161041a565b820191906000526020600020905b8154815290600101906020018083116103fd57829003601f168201915b50505060028085018054604080516020601f60001961010060018716150201909416959095049283018590048502810185019091528181529596959450909250908301828280156104ac5780601f10610481576101008083540402835291602001916104ac565b820191906000526020600020905b81548152906001019060200180831161048f57829003601f168201915b5050505060038301805460408051602060026001851615610100026000190190941693909304601f810184900484028201840190925281815294959493509083018282801561053c5780601f106105115761010080835404028352916020019161053c565b820191906000526020600020905b81548152906001019060200180831161051f57829003601f168201915b5050505050905084565b60005481565b6000805460019081018083556040805160808101825282815260208082018981528284018990526060830188905293865284815291909420845181559151805192936105a093908501929190910190610752565b50604082015180516105bc916002840191602090910190610752565b50606082015180516105d8916003840191602090910190610752565b509050507f4a65ee4133f8e1c309b8f7634963d0a348a92f4152791a79d79538672f0f4eb960005484848460405180858152602001806020018060200180602001848103845287818151815260200191508051906020019080838360005b8381101561064e578181015183820152602001610636565b50505050905090810190601f16801561067b5780820380516001836020036101000a031916815260200191505b50848103835286518152865160209182019188019080838360005b838110156106ae578181015183820152602001610696565b50505050905090810190601f1680156106db5780820380516001836020036101000a031916815260200191505b50848103825285518152855160209182019187019080838360005b8381101561070e5781810151838201526020016106f6565b50505050905090810190601f16801561073b5780820380516001836020036101000a031916815260200191505b5097505050505050505060405180910390a1505050565b828054600181600116156101000203166002900490600052602060002090601f016020900481019282601f1061079357805160ff19168380011785556107c0565b828001600101855582156107c0579182015b828111156107c05782518255916020019190600101906107a5565b506107cc9291506107d0565b5090565b6107ea91905b808211156107cc57600081556001016107d6565b9056fea265627a7a723158208f3ef148ced1a090b2d11dbf97701e0fb928ad669b2f5175c47112369851536164736f6c63430005100032",
  "source": "pragma solidity >=0.5.0;\r\n\r\ncontract votacion {\r\n    uint256 public taskCount = 0;\r\n\r\n    struct Task {\r\n        uint256 id;\r\n        string id_persona;\r\n        string voto;\r\n        string fecha_voto;\r\n    }\r\n\r\n    mapping(uint256 => Task) public tasks;\r\n\r\n    event TaskCreated(uint256 id, string id_persona, string voto, string fecha);\r\n\r\n    //event TaskCompleted(uint256 id, bool completed);\r\n\r\n    constructor() public {}\r\n\r\n    function createTask(\r\n        string memory _id_persona,\r\n        string memory _voto,\r\n        string memory _fecha_voto\r\n    ) public {\r\n        taskCount++;\r\n        tasks[taskCount] = Task(taskCount, _id_persona, _voto, _fecha_voto);\r\n        emit TaskCreated(taskCount, _id_persona, _voto, _fecha_voto);\r\n    }\r\n\r\n    /*     function toggleCompleted(uint256 _id) public {\r\n        Task memory _task = tasks[_id];\r\n        _task.completed = !_task.completed;\r\n        tasks[_id] = _task;\r\n        emit TaskCompleted(_id, _task.completed);\r\n    } */\r\n}\r\n",
  "sourcePath": "D:/proyectos/react/sistema_elecciones/contracts/votacion.sol",
  "compiler": {
    "name": "solc",
    "version": "0.5.16+commit.9c3226ce.Emscripten.clang"
  },
  "schemaVersion": "3.4.1",
  "updatedAt": "2021-06-28T20:48:21.592Z",
  "networkType": "ethereum",
  "devdoc": {
    "methods": {}
  },
  "userdoc": {
    "methods": {}
  }
}